:100A0C00494E3A004F55543A0053656375726974F8
:100A1C00792053797374656D0053797374656D2007
:090A2C004F464620202020200046
:0A0AA80002080000020A0000C1006D
:1009D100D2B17F027E001209ECC2B1E9C454F0FF2A
:0B09E100E5A0540F4FF5A0D2B17F023B
:1009EC00E4FDFCC3ED9FEC9E5015E4FBFA0BBB0041
:0F09FC00010ABA04F8BBFBF50DBD00010C80E445
:010A0B0022C8
:100A9300A907E954F0FFE5A0540F4FF5A0C2B01227
:050AA30009D1C2B122DF
:0B0A5A007C007D0A12092EEF2430FF03
:100A6500A907E954F0FFE5A0540F4FF5A0D2B01245
:050A750009D1C2B1220D
:100A35008B0C8A0D890EAB0CAA0DA90E1209156037
:100A450013050EE50E7002050D14F9120915FF12B6
:050A55000A6580E222A9
:100A7A007F02120A937F28120A937F0C120A937F2D
:090A8A0006120A937F01020A938F
:100983007F80120A937BFF7A0A790C120A35AE082C
:10099300AF09120A5AAE08AF097C007D0A12092E6C
:1009A300ED2430FF120A657FC0120A937BFF7A0A97
:1009B3007910120A35AE0AAF0B120A5AAE0AAF0B00
:0E09C3007C007D0A12092EED2430FF020A6529
:10088C00120A7A7BFF7A0A7915120A357FD07E0715
:10089C001209EC7F01120A93209210B200D2A07FB1
:1008AC00C87E001209ECC2A03092FD209311E4F531
:1008BC0008F509F50AF50B7F01120A933093FD3008
:1008CC0000372090160509E50970020508D2A07FB3
:1008DC00647E001209ECC2A03090FD209116050B2D
:1008EC00E50B7002050AD2A07F647E001209ECC2EF
:1008FC00A03091FD120983809F7F80120A937BFFA9
:09090C007A0A7925120A35808F60
:03000000020800F3
:0C080000787FE4F6D8FD758120020847DF
:10091500BB010689828A83E0225002E722BBFE02E0
:09092500E32289828A83E4932213
:10092E00BC000BBE0029EF8DF084FFADF022E4CCAD
:10093E00F875F008EF2FFFEE33FEEC33FCEE9DEC76
:10094E00984005FCEE9DFE0FD5F0E9E4CEFD22EDBC
:10095E00F8F5F0EE8420D21CFEADF075F008EF2F06
:10096E00FFED33FD4007985006D5F0F222C398FDF7
:05097E000FD5F0EA2294
:10080C0002088CE493A3F8E493A34003F68001F26E
:10081C0008DFF48029E493A3F85407240CC8C333ED
:10082C00C4540F4420C8834004F456800146F6DFBC
:10083C00E4800B0102040810204080900AA8E47E9A
:10084C00019360BCA3FF543F30E509541FFEE493B1
:10085C00A360010ECF54C025E060A840B8E493A378
:10086C00FAE493A3F8E493A3C8C582C8CAC583CAA3
:10087C00F0A3C8C582C8CAC583CADFE9DEE780BE5B
:010AB2000043
:00000001FF
